:020000040800F2
:10000000689A0020ED0300083D3F0008BB3D000852
:10001000393F0008B323000889560008000000009B
:100020000000000000000000000000002D03000898
:10003000E32400080000000089030008014E0008C6
:100040000704000807040008070400080704000864
:100050000704000807040008070400080704000854
:100060000704000807040008070400080704000844
:100070000704000807040008070400080704000834
:100080000704000807040008070400080000000037
:10009000000000000000000000000000070400084D
:1000A000DD4E0008070400080704000807040008E4
:1000B00007040008070400080704000807040008F4
:1000C00007040008070400080704000807040008E4
:1000D000070400084D56000807040008000000004F
:1000E00007040008070400080704000800000000D7
:1000F00000000000000000000000000007040008ED
:1001000000000000070400080704000807040008B6
:1001100000000000000000000000000000000000DF
:100120000704000807040008B923000807040008B2
:1001300007040008000000000000000000000000AC
:10014000000000000000000000000000070400089C
:100150000704000807040008C92300080704000872
:100160000704000807040008000000000000000069
:10017000000000000000000000000000000000007F
:10018000000000000704000800000000000000005C
:10019000070400080704000800F002F800F0B6F8B1
:1001A0000AA090E8000C82448344AAF10107DA45D2
:1001B00001D100F0ABF8AFF2090EBAE80F0013F06E
:1001C000010F18BFFB1A43F00103184768BC000079
:1001D00088BC00000A444FF0000C10F8013B13F0FB
:1001E000070408BF10F8014B1D1108BF10F8015B90
:1001F000641E05D010F8016B641E01F8016BF9D183
:1002000013F0080F1EBF10F8014BAD1C0C1B09D1D9
:100210006D1E58BF01F801CBFAD505E014F8016B4B
:1002200001F8016B6D1EF9D59142D6D370470000DD
:100230000023002400250026103A28BF78C1FBD8EF
:10024000520728BF30C148BF0B6070476E2900F0CD
:10025000E285702900F0B98266290BF016836529C2
:100260000BF0138367290BF0108361290BF00F83C8
:1002700003681B0A28BF41F08001692900F02A8227
:10028000642900F02782752900F024826F2900F08C
:10029000D086782900F08582E92900F06B86E42970
:1002A00000F06886F52900F06586EF2900F0CD861C
:1002B000F82900F084820368DB0928BF41F080013F
:1002C000632900F0EC85732900F0F185E32901F042
:1002D000F382F32901F0F882002070471FB50BF07C
:1002E000CFFA9DE8030000F0F5FC01F047FB0400A5
:1002F000002000210BF0AEFA401C606000200021BD
:100300000BF092FAE0601FBD10B510BD01F008FBC4
:100310001146FFF7E3FF06F07FFF01F0E5FB03B4B2
:10032000FFF7F2FF03BC01F015FC00002C4B19682D
:100330000868B0E8F04F80F30988BFF36F8F4FF083
:10034000000080F311887047000000000848006832
:10035000006880F308884FF0000080F3148862B6CC
:1003600061B6BFF34F8FBFF36F8F00DF00BF00BFD9
:1003700008ED00E0DFF80C00016841F47001016055
:10038000704700BF88ED00E0EFF30980BFF36F8F87
:10039000134B1A681EF0100F08BF20ED108A20E9D9
:1003A000F04F106009B44FF0500080F31188BFF394
:1003B0004F8FBFF36F8F09F0DFFF4FF0000080F326
:1003C000118809BC19680868B0E8F04F1EF0100FDA
:1003D00008BFB0EC108A80F30988BFF36F8F7047B5
:1003E0000C010020EFF305807047000009488047AA
:1003F00009480047FEE7FEE7FEE7FEE7FEE7FEE707
:10040000FEE7FEE7FEE7FEE704480549054A064B1E
:1004100070470000C94E0008990100086884002058
:10042000689A0020688A0020688A002070B5064615
:1004300000F034FC056806F10B0020F00704B4421C
:100440009CBF002070BD2B466A68BAB11068A042FC
:1004500010D304F1080188423CBF5068586007D3AC
:100460005168101941601168091B016058601460DF
:10047000101D70BD13465268002AE7D12146284658
:1004800000F014FC0028DED170BD70B50446051FD5
:1004900000F004FC0068002C14BF446870BD002C00
:1004A00018BFAC423CBF20466468F8D301680A1804
:1004B000AA4218BF456003D12A680546114401606D
:1004C00028684119A1421CBF6C6070BD61686960F9
:1004D00021680844286070BD53EA020C00F069806E
:1004E0002DE9F04B4FF00006002B1FBFB3FA83F548
:1004F00003FA05F424FA05F65E4012BF1643B2FA79
:1005000082F502FA05F4C5F120051EBF22FA05FCAA
:1005100044EA0C04203556EA044C4FEA144418BF50
:10052000641C4FF000084FF00009904271EB030C7F
:1005300039D3002919BFB1FA81F701FA07F6B0FAE9
:1005400080F700FA07F6C7F120071EBF20FA07FC64
:1005500046EA0C062037B6FBF4FCA7EB0507103F74
:1005600007F01F0BCBF120060CFA0BFB2CFA06F65A
:1005700044BFB3460026202FA4BF5E464FF0000BB9
:100580005BEA060C08BF4FF0010B19EB0B09ABFB44
:10059000027C48EB0608C01B06FB02CC0BFB03CC1D
:1005A00071EB0C01C1E70B46024641464846BDE8E7
:1005B000F08B13B54FF000004FF00001AFF3008057
:1005C000BDE81C40704700007CB51D4616460C0077
:1005D000009001D02044401E074B7B442A466946C8
:1005E0000190304600F031FC05461CB10020694600
:1005F00000F03EFC28467CBD9D0800000FB47CB591
:100600000C0009AA009001D02044401E084B7B44F6
:1006100069460190089800F018FC05461CB10020BE
:10062000694600F025FC28467CBC5DF814FB000000
:100630006908000070B5044685690068C10601D5E7
:10064000302600E02026C00707D070BDD4E9012184
:1006500030469047206A401C20626D1EF6D570BD62
:1006600070B5044685690078C00707D170BDD4E92C
:10067000012120209047206A401C20626D1EF6D583
:1006800070BD70B50C460546012A05D02878800655
:1006900000D5EA69002302E0012305E05B1C9342D8
:1006A00002D2E05C0028F9D1A869E618C01AA86156
:1006B000286A184428622846FFF7BCFF04E0D5E901
:1006C000012114F8010B9047B442F8D32846FFF7F4
:1006D000C7FF70BD2DE9F04106460024106875295A
:1006E000314616A510D000F02BFB002802DA40425C
:1006F00013A507E031688A0701D512A502E0490772
:1007000004D511A5012401E000F023FB00210A22F9
:1007100006F1240709E0B0FBF2FCB0FBF2F302FBA8
:100720001C00303078541846491C0028F3D1234669
:100730002A463046BDE8F04100F014BB000000003E
:100740002D0000002B00000020000000F0B40D463A
:100750000188090502D5214C7C4402E01F4C7C44F1
:100760000E34002100F1240608E002F00F07120900
:10077000E75D42EA03721B097754491C52EA0307FA
:10078000F3D102780023120704D5702D06D009B1E9
:10079000022311342246F0BC00F0E4BA01231034E5
:1007A000F8E770B504460D462146106800F0D1FA0E
:1007B000024629462046BDE870400023C6E7D21D08
:1007C00022F00703D3E90023C0E70368126843F06F
:1007D000200303600823C3610023B7E7FBB40000D4
:1007E0002DE9F05F894604464FF0000ADFF874B146
:1007F000FB44C0F820A02046E1688847002874D058
:10080000252806D0D4E901219047206A401C2062A7
:10081000F1E700265F462046E16888472028054624
:1008200007DB312D05D2781910F8200C08B10643EA
:10083000F1E7B00701D526F00406C4F81CA0002794
:10084000C4F818A02A2D09D0284605F0AAF938B313
:1008500004EB8708303DC8F8185019E059F8041B1C
:10086000204604EB87029161E1688847012F054625
:1008700018D1E069002820DA26F020061DE0D8F81B
:10088000180000EB800005EB40003038C8F8180075
:100890002046E1688847054605F083F90028EED137
:1008A000012F0AD02E2D08D12046E16888477F1CF1
:1008B0000546022F46F02006C4DBA069002803DAB3
:1008C000404246F00106A061F00701D026F0100674
:1008D0006C2D0BD0682D09D04C2D39D06A2D35D018
:1008E000742D35D07A2D33D016E038E0E1682F46EC
:1008F00020468847B842054609D16C2F26D04FF4D0
:100900008060E168064320468847054604E06C2F76
:100910001AD04FF4807006430DB3A5F14100192899
:1009200002D8203546F400664A462946204626600D
:100930004E46FFF78BFC80B101280BD0F61D26F048
:10094000070000F1080956E74020E4E78020D8E7D7
:100950000020D6E706F104094DE7284652E7206A51
:10096000BDE8F09F8BB4000030B505460B462A4623
:1009700013F8014B12F8010B08B1A042F8D01CB1DA
:10098000002802D06D1CF1E7284630BD40EA010383
:1009900010B59B070FD1042A0DD310C808C9121F28
:1009A0009C42F8D020BA19BA884201D9012010BD62
:1009B0004FF0FF3010BD1AB1D30703D0521C07E02F
:1009C000002010BD10F8013B11F8014B1B1B07D193
:1009D00010F8013B11F8014B1B1B01D1921EF1D104
:1009E000184610BD40EA0103024630B59B0710D1FE
:1009F0004FF0013400E008C208C91D1B9D4315EAF1
:100A0000C41FF8D013F0FF0102F8011B0DD01B0A20
:100A1000F8E711F8013B002B02F8013B05D011F873
:100A2000013B002B02F8013BF3D130BD10B5431C54
:100A300002E010F8011B71B18107FAD14FF00132C9
:100A400002C88C1A8C4314EAC211F9D0C01A0A06E3
:100A500003D0C01E10BDC01A10BD0A0401D0801EF4
:100A600010BD0902FCD0401E10BDCBB22AB10178E6
:100A70008B4203D0401C521EF9D10020704740EA3F
:100A8000010370B59B072ED14FF00136042A2AD3FB
:100A900008C810C99D1B9D43121F15EAC61517D023
:100AA000D8B2E1B2401A50EA056110D198B2A1B2B1
:100AB000401A50EA05410AD123F07F4024F07F41DB
:100AC000401A50EA052102D1180EA0EB146070BD47
:100AD000A342DBD018BA21BA884201D9012070BDE7
:100AE0004FF0FF3070BD0AB9002070BD10F8013B17
:100AF00011F8014B63B1A3420AD1521E08D010F87D
:100B0000013B11F8014B1BB1A34201D1521EEDD1A3
:100B1000181B70BD032A40F2308010F0030C00F067
:100B2000158011F8013BBCF1020F624498BF11F827
:100B300001CB00F8013B38BF11F8013BA2F10402E0
:100B400098BF00F801CB38BF00F8013B11F0030358
:100B500000F08682083AC0F0088051F8043B083A59
:100B600051F804CBA0E80810F5E7121D5CBF51F85E
:100B7000043B40F8043BAFF30080D20724BF11F8D8
:100B8000013B11F801CB48BF11F8012B24BF00F83D
:100B9000013B00F801CB48BF00F8012B704702F081
:100BA000FF0343EA032242EA024200F002B84FF098
:100BB00000020429C0F0128010F0030C00F01B802A
:100BC000CCF1040CBCF1020F18BF00F8012BA8BF38
:100BD00020F8022BA1EB0C0100F00DB85FEAC17CFC
:100BE00024BF00F8012B00F8012B48BF00F8012BAF
:100BF00070474FF0000200B51346944696462039E0
:100C000022BFA0E80C50A0E80C50B1F12001BFF4C5
:100C1000F7AF090728BFA0E80C5048BF0CC05DF82B
:100C200004EB890028BF40F8042B08BF704748BF79
:100C300020F8022B11F0804F18BF00F8012B7047ED
:100C400010B5044610F0030F08BF11F0030F40F079
:100C500015804FF0013E121FC0F20E8051F8043B88
:100C6000A3EB0E0C2CEA030C1CEACE1C08BF40F8C8
:100C7000043BF0D0A1F1040102F10402521E08DB92
:100C800011F8013B002B00F8013BF7D11146FFF7AB
:100C90008EFF204610BD7047704770470048704770
:100CA0000C840020704770477047704738B5044681
:100CB0000A4600206946AFF30080002808BF38BD0F
:100CC00002460099204600F001FA012038BD0120BB
:100CD00000F01EBEF8B5AFF30080054600200C46BC
:100CE000102000BF0646A819A0420DD93246694619
:100CF0000020AFF30080070008BF00F009FE009855
:100D0000A04218BF0546C419FFF7C8FF0560074693
:100D1000F01D20F007004619284600F00AF8B442FA
:100D200008BFF8BDA21B31463868BDE8F84000F0A6
:100D3000CDB900210160C0E9011070471020704753
:100D400009684A0501D540B27047C905FCD500B213
:100D5000704709684A0501D5C0B27047C905FCD57E
:100D600080B270472DE9F0470D46994692460446F9
:100D700000F124080168880604D5E06921F010011B
:100D8000216000E00120A84201DD471B00E00027B0
:100D9000A1697A1902EB0900081AA0612078C0063F
:100DA00002D42046FFF746FC002608E0D4E90121E2
:100DB0001AF806009047206A401C761C20624E45B7
:100DC000F4DB2078C0060AD52046FFF733FC06E0A6
:100DD000D4E9012130209047206A401C2062381E4F
:100DE000A7F10107F4DC07E0D4E9012118F80500B8
:100DF0009047206A401C2062281EA5F10105F3DC03
:100E00002046FFF72DFC2078000602D50220BDE821
:100E1000F0870120FBE711680268006A530501D5DD
:100E200008700AE0D30501D5088006E0130603D553
:100E3000C217C1E9000200E008600120704700000D
:100E400001694A1C02610878704700B58FB0CDE98E
:100E500001310021059105497944CDE9031011467E
:100E60006846FFF7BDFC0FB000BD0000E5FFFFFFC7
:100E70000A6802F8010B0A607047D1E900239A4220
:100E800002D2531C0B601070704710B5436913B148
:100E9000AFF3008001E0FFF7F4FB012010BD1278F2
:100EA00000F124010A7000224A700122EDE7116866
:100EB0004FF0FF32E9E700002DE9FF5F15468A4653
:100EC0000446DFF8AC80F8440027D8E900103E461D
:100ED000CDE9001010E03AF816106A4602A800F0BA
:100EE000F7FC411C07D02178890603D5E26939183F
:100EF00091420DD80744761C2078800602D5E0691F
:100F0000B84205DDAE42E6DB3AF816000028E2D131
:100F1000A069C01BA0612046FFF78CFBD8E9001038
:100F2000CDE90010002017E03AF818106A4602A830
:100F300000F0CEFCB0F1FF3F81460BD000250DF153
:100F4000080B05E0D4E901211BF8050090476D1C52
:100F50004D45F7D308F10100B0428046E4DB206A3A
:100F6000384420622046FFF77BFBBDE8FF9F00006E
:100F7000C6AD00002DE9F0418046D21D22F00702E7
:100F80000025D2E90002F52915A614D0011E72F140
:100F9000000106DA0023D0EB030063EB020211A686
:100FA00008E0D8F800108B0701D50FA602E049072A
:100FB00001D50EA601251146002408F1240704E0FE
:100FC00000F09EF830323A55641C50EA0102F7D125
:100FD0002B46324621464046BDE8F041FFF7C2BEEF
:100FE000000000002D0000002B0000002000000089
:100FF00030B4002100F1240408E002F00705D20813
:10100000303542EA4372DB086554491C52EA030555
:10101000F3D10468002310A2250707D5A40600D445
:1010200021B1C46901230DA2641EC46130BCFFF765
:1010300099BE10B5044621461068FFF78AFE0246A5
:101040002046BDE810400023D2E7D21D22F0070160
:10105000D1E90023CCE700000000000030000000D0
:1010600010B5203AC0F00B80B1E81850203AA0E843
:101070001850B1E81850A0E81850BFF4F5AF5FEA77
:10108000027C24BFB1E81850A0E8185044BF18C92A
:1010900018C0BDE810405FEA827C24BF51F8043BD1
:1010A00040F8043B08BF7047D20728BF31F8023B25
:1010B00048BF11F8012B28BF20F8023B48BF00F8B9
:1010C000012B7047004870470484002003464068A5
:1010D0008C46002818BF88423CBF03464068F8D3BE
:1010E00018681844884207D00CF1030020F007006C
:1010F000001D411A521A0146081D0A60FFF7C5B9C2
:1011000030B5B0F10A024FEA900E71F100034EEAD9
:10111000817EB0EB0E0061EB91014FEA101E4EEAAA
:10112000017E10EB0E0041EB11114FEA102E4EEA3A
:10113000016E10EB0E0041EB11214FEA104E4EEA0A
:10114000014E10EB0E0041EB1141401841F100013E
:101150004FEAD00040EA41704FEAD10110EB800520
:101160004FEA810444EA907444EB01046D1944EBA6
:101170000404521BA3414FF0000348BF0A3200D5BC
:1011800030BD401C41F1000130BD70472DE9FF4FDB
:101190000C461E464FF0FF378BB0D2E90001DDF858
:1011A00060800A908A46C1F30A5505B93D46002180
:1011B00008464FF00000BAF1000F00F4400005DAD5
:1011C00000EB80004FF4400101EA50004FEA9059D3
:1011D000B9F1010F00DDB9460A9850EA4A000ED075
:1011E00044F61050A5F2FF3545432F14B8F1000F17
:1011F0001ED07542291E1EDDC9F100021CE0B8F1A7
:10120000010F4FF0000001D0302103E0F24305E070
:101210002154401CB042FBDB304600220021215407
:101220000B99C1F80880C1E900200FB0BDE8F08F2C
:10123000BD1B6D1CDEE74A4600DA694206A800F0D5
:10124000E1FB06AB93E8070003AB83E807005046D9
:101250000A9900F0E6FC8DE80700A0F500501F3861
:1012600000900398002D0ADD42F21F014A4608440F
:10127000002303A90390684600F04FFF09E0A0F5A2
:1012800000504A461F38002303A90390684600F027
:1012900059FF8DE807000004000C03D04FF0FF3029
:1012A000410800E01046B8F1000F03D00022009280
:1012B00015461EE0751E05D4FFF722FF3032625539
:1012C0006D1EF9D5B3460122084302D000227F1CCF
:1012D00004E02078302801D100227F1E002A0997DF
:1012E00084D01DE0112D07DAFFF70AFF3032625576
:1012F0006D1C50EA0102F5D1084302D00098C8B134
:101300000EE00021681E05E0235C625C63542254F9
:10131000401E491C8142F7DBAB46A81B401E0990CA
:10132000002004F80B000B98099AC0F80880C0E967
:10133000002B7AE711264FF0000857E72DE9F04F10
:1013400088460446D21D22F0070191B0D1E9000180
:10135000CDE90A0104F0E7FB02460B98C00F01D06B
:101360002D2007E02068810701D52B2002E02021F5
:1013700001EAC000032A099001D0072A05DB0346D1
:101380004146204600F0FEFA0BE12078800601D5A8
:10139000E06900E00620B8F1650F814606D0B8F19B
:1013A000660F18D0B8F1670F70D131E00020B9F1A5
:1013B000110F009001DB112301E009F101030AAADA
:1013C00001A90CA8FFF7E2FEDDE90C70002609F187
:1013D0000105834647E001204B4600904FF000474F
:1013E0000AAA01A90CA8FFF7D1FEDDE90DB00C99FE
:1013F0005D46002610B909F101000D18B9EB050092
:1014000003D4C0F1FF3609F10105A5EB09002BE07B
:10141000B9F1010F01DA4FF001090020B9F1110F04
:101420000090484601DD112300E003460AAA01A905
:101430000CA8FFF7ABFEDDE90C704D460026834695
:10144000207800070AD4AB4500DA5D4601A8012DDB
:1014500004DD411911F8011C302907D04F4502DA8B
:1014600017F1040F04DA012082460FE06D1EEEE74B
:10147000002F02DCED1B3E4403E0781CA84200DD97
:101480007D1CB81B00F1010A4FF0004720780007CF
:1014900003D4AA4501DB4FF0FF3A0021B7F1004F1A
:1014A0000DF143088DF8431024D002202B23002F88
:1014B00001DA7F422D230A21021EA0F1010000DC87
:1014C0005FB197FBF1FC97FBF1F201FB1C7C174627
:1014D0000CF1300C08F801CDEEE7A8F10100037023
:1014E0002188090501D5452100E06521A0F1010809
:1014F00000F8011C09980FA9A1EB0807FF1D00B116
:101500000120411901EBEA70A1693844081A401E14
:10151000A0612078C00602D42046FFF78BF8099816
:1015200028B1D4E901219047206A401C206220782C
:10153000C00622D52046FFF77DF81EE0002E04DB12
:10154000B34502DD01A8805D00E03020D4E901212F
:101550009047206A401C2062761CAAF101005FEAD5
:10156000000A0AD100F00AFAC0680168405CD4E9B8
:1015700001219047206A401C2062281EA5F1010528
:10158000DCDC07E0D4E9012118F8010B9047206A60
:10159000401C2062381EA7F10107F3DC2046FFF74C
:1015A0005FF8032011B041E62DE9F04F04460D46E7
:1015B000D21D22F0070089B0D0E90097484639468D
:1015C00004F0B1FA0246F80F01D02D2307E020689D
:1015D000810701D52B2302E0202101EAC0038DF809
:1015E00020300BB1012000E00020032A824601D008
:1015F000072A04DB2946204600F0C4F93FE12078A1
:10160000800601D40D2500E0E569C7F30A560D2DCB
:1016100049DA00214FEA175B08464FF00000002F1F
:1016200000F4400007DA00EB80004FF4400100EBCB
:10163000D07001EA60008115012901DD4FF0FF3112
:1016400000224FEA850CBCF1180F06D31346ACF10B
:1016500018004FF08052C24003E04FF4801323FA89
:101660000CF30CF10C0CBCF1200F04D3ACF1200CEA
:1016700009FA0CF001E007FA0CF000294FF00048DD
:1016800001DD18B90FE00ED140450CD319EB02096A
:101690005F4121B9404502D19F4329EA0209BBEBD2
:1016A000175F00D0761C2088000502D57B4878445F
:1016B00002E07A487844193808AA302302F80A3040
:1016C000037C0AF10101002E0AF1020A53546A4612
:1016D00002DC4FF0300101E04FF031014FF0010822
:1016E0008DF8001002D0A6F2FF3603E059EA470158
:1016F00000D06B4E002D02DC2178090704D54FF095
:1017000002082E218DF80110C44600210BE0C7F31A
:1017100003433F01C35C491C6D1E02F808300529D4
:1017200008F1010801DA002DF1DC00210CE000EBEA
:101730001973491C1B786D1E082902F808304FEAFE
:10174000091908F1010801DA002DF0DC21688B0687
:1017500002D516E0A8F10108E04505DD02EB08031B
:1017600013F8013C302BF5D0B8F1000F09DD02EB86
:10177000080313F8013C2E2B03D1090701D4A8F16B
:101780000108002D05DD3E2102F808106D1E08F14C
:101790000108407C002E02F8080008F1010804DA74
:1017A0002D20764202F8080002E02B2002F8080003
:1017B0000A214FF47A70864208F101080BDB96FB90
:1017C000F0F3303302F8083096FBF0F308F101082B
:1017D00000FB136601E0642E0CDB642096FBF0F343
:1017E000303302F8083096FBF0F308F1010800FBF3
:1017F000136601E00A2E06DB96FBF1F0303002F8AA
:10180000080008F1010896FBF1F001FB1060303090
:1018100002F80800A16908F1010808EB050202EBD3
:101820000A00081AA0612078C00602D42046FEF7FC
:1018300001FF216A08AE01EB0A00206204E0D4E94E
:10184000012116F8010B9047BAF1010AF7D220786E
:10185000C00602D52046FEF7EDFE6E4609E016F8FA
:10186000010B3E280FD0D4E901219047206A401C8B
:101870002062B8F10108F2D22046FEF7F1FE09B06D
:101880000320BDE8F08F206A2844206203E0D4E9F9
:101890000121302090476D1EEBD3F8E7F9A5000039
:1018A00002FCFFFF10B5436913B1AFF3008001E004
:1018B000FFF702FB012010BD128800F12401828491
:1018C0000022C2840122EDE711684FF0FF32E9E700
:1018D00070B516460C46054600F048F8036893F8C4
:1018E0000101012806D0FF2C0FD8185D68B1012036
:1018F0002C7070BDD3F807013246214603F207135E
:1019000003442846BDE8704018474FF0FF3070BDD3
:1019100010B500F0F7F8BDE8104000F0EEB87047E1
:101920007546FFF7CFFBAE4605006946534620F0EB
:101930000700854618B020B5FEF766FDBDE82040DB
:101940004FF000064FF000074FF000084FF0000B7B
:1019500021F00701AC46ACE8C009ACE8C009ACE82E
:10196000C009ACE8C0098D467047000010B500F012
:1019700005F8001D10BD00BFDD9E00000048704747
:10198000248400202DE9F0411F4604460326016807
:10199000072A01F4006004DB08B116A505E016A5CE
:1019A00003E008B115A500E015A521F010002060A6
:1019B000A069C01EA0610FB1401EA0612046FEF7C5
:1019C00039FE4FB1D4E9012138469047206A401CC6
:1019D0002062C01C206206E0206AFAE7D4E90121F7
:1019E00015F8010B9047761EF8D22046FEF738FE18
:1019F000BDE8F0814E414E006E616E00494E4600DA
:101A0000696E66002DE9F047814616468AB0354872
:101A100078440DC88DE80D0032487844801C03AC32
:101A20000DC884E80D0041F69B300844372190FB37
:101A3000F1F290FBF1F5A5F1800501FB12041B3CCE
:101A400002D56442012000E00020DFF898A0804623
:101A50000027FA44AAF1BE0A0EE0E0070AD0324697
:101A6000684607EB470101230AEB810100F06AFB9E
:101A70008DE8070064107F1C002CEED1194F7F44C5
:101A8000AE3F19E0E80715D007EB04100DF1180A76
:101A900090E80E008AE80E00C068F04201D1981963
:101AA00008903246012306A903A800F04BFB03ABC4
:101AB00083E807006D10641C002DE3D14FF0010393
:101AC00032466946B8F1000F03A802D000F025FBAA
:101AD00001E000F037FBC9E90001C9F808200AB0AD
:101AE000BDE8F08728A3000010B50446AFF30080DE
:101AF0002046BDE81040FEF712BC002801D000F0DF
:101B000029B8704710B5012805D0002103A000F0C6
:101B100027F8012010BD09A1F8E7000053494752FA
:101B2000544D454D3A204F7574206F6620686561AD
:101B300070206D656D6F7279000000003A20486575
:101B40006170206D656D6F727920636F7272757050
:101B50007465640001491820ABBEFEE72600020050
:101B600070B505460C460A2000E06D1C00F052F8E6
:101B700035B128780028F8D102E0641C00F04AF85A
:101B800014B120780028F8D1BDE870400A2000F098
:101B900041B800004FF0013C50F8042B51F8043BD1
:101BA0009A4221D1A2EB0C03934313EACC1317D131
:101BB00050F8042B51F8043B9A4215D1A2EB0C03C8
:101BC000934313EACC130BD150F8042B51F8043B88
:101BD0009A4209D1A2EB0C03934313EACC13DBD056
:101BE0004FF00000704700BFD01A01BAB1FA81F17E
:101BF00001F0180122FA01F0CB40C1F12001DBB263
:101C0000C0B2C01A2CFA01F3D11A914311EAC311E0
:101C1000E6D1704708B569468DF800000320ABBED9
:101C200008BD5FEA400C08BF91F0000F4FEA8C231B
:101C30004FEAC12243EA51514FEA1C5018BF00F548
:101C4000F0404FEA300018BF41F000415FEA6C5CA1
:101C500000F02980BCF1FF3F08BF40F08040704792
:101C6000130C06BF12044FF0100C4FF0000C130EB3
:101C700004BF12020CF1080C130F04BF12010CF187
:101C8000040C930F04BF92000CF1020CD30F04BF9D
:101C900052000CF1010C11464FF00002A0F11F00A0
:101CA000A0EB0C00704711F0004F08BF704731F0F7
:101CB00000413FF4D5AF0B0C06BF09044FF0100CE8
:101CC0004FF0000C0B0E04BF09020CF1080C0B0FB7
:101CD00004BF09010CF1040C8B0F04BF89000CF147
:101CE000020CCB0F04BF49000CF1010CCCF1200316
:101CF000A0EB0C0022FA03F302FA0CF241EA030112
:101D000000F10100704720F07F4C80EA030023F0CF
:101D10007F47ACEB070303F57C5300F0004003F171
:101D2000FF032DE980494FEA154B09B44FEA1443EC
:101D300025EA0B4E24EA03480FF2042606EB13278C
:101D400049083E785FEA320203FB0667C7F50007E1
:101D500007FB06F64FEA54374FEAD64606F102066D
:101D600007FB066CCCF1005C4FEA1C472CEA074CE1
:101D700007FB06F40CFB06F504EB15464FEA961636
:101D800034BF00204FF000404FEAD13706FB07FC7C
:101D90004FEA1C4C0CFB0BF7D21B03FB0CF761EB5F
:101DA00007010CFB0EF7B0EB074072EB17420CFB80
:101DB00008F734BFA2EB0742B2EB074261EB1741D1
:101DC0004FEA0C444FEA910706FB07FC4FEA1C4C14
:101DD0000CFB0BF7B0EBC74072EB573203FB0CF771
:101DE00034BFA2EBC742B2EBC74261EB57310CFBE9
:101DF0000EF7B0EBC70072EB57720CFB08F734BF5D
:101E0000A2EBC702B2EBC70261EB5771039F4FEA27
:101E1000816141EA921104EBCC044FEAD1374FEAD9
:101E2000826206FB07FC42EA90124FEA80604FEAAA
:101E30001C4C0CFB0BF7D21B03FB0CF761EB0701EF
:101E40000CFB0EF7B0EB074072EB17420CFB08F7E8
:101E500034BFA2EB0742B2EB074261EB17414FEAF6
:101E60008C554FEA910704EB9C2406FB07FC4FEAD4
:101E70001C4C0CFB0BF7B0EBC74072EB573203FB6B
:101E80000CF734BFA2EBC742B2EBC74261EB57314C
:101E90000CFB0EF7B0EBC70072EB57720CFB08F7A8
:101EA00034BFA2EBC702B2EBC70261EB577115EB6F
:101EB0004C254FEA816141EA92114FEA82624FEA72
:101EC000D13742EA901206FB07FC44F100044FEAC6
:101ED00080604FEA1C4C0CFB0BF7D21B03FB0CF78A
:101EE00061EB07010CFB0EF7B0EB074072EB1742FA
:101EF0000CFB08F734BFA2EB0742B2EB074261EBE1
:101F0000174115EB1C154FEA813141EA92414FEA26
:101F1000823242EA90424FEA80304FEA0C7644F136
:101F2000000448EA03434EEA0B484FF0000EB2EBC0
:101F3000080C71EB030724BF624639464EEB0E0EC8
:101F40004FF0000B0018524149414BEB0B0BB2EB29
:101F5000080C71EB03077BF1000B24BF6246394686
:101F60004EEB0E0E4FF0000B0018524149414BEB67
:101F70000B0BB2EB080C71EB03077BF1000B24BFDA
:101F8000624639464EEB0E0E51EA020718BF46F084
:101F9000010616EB0E7655F1000254F1000103D54F
:101FA000BDE88901BDE80088BDE88901BDE80048B9
:101FB000B619524141EB0101A3F101037047808042
:101FC0007F7E7D7C7B7A7978777676757473727193
:101FD00071706F6E6E6D6C6C6B6A6A69686867664B
:101FE00066656464636362616160605F5F5E5E5DDD
:101FF0005D5C5C5B5B5A5A59595858575756565551
:1020000055555454535352525251515050504F4FB2
:102010004F4E4E4D4D4D4C4C4C4B4B4B4A4A4A4902
:102020004949484848474747474646464545454445
:102030004444444343434342424242414141002BD2
:102040009C4630D477002BD01CB54FEA370703B439
:102050004FF010004FF01001BAF1000F06D0BCF1A4
:10206000000FDCBF40F0080040F008014FF0000016
:102070000FBCBDE810400BF1010BBBF1010F08BF15
:102080005FEA170722BF12F1010211F101014FF0BF
:10209000004143F1000300F0004043EA00007047B4
:1020A000F9D35708D0E746EA064613F1400F4FEA46
:1020B00016461FDD13F1200FDFBF16430A4600212D
:1020C00020335B42BED0C3F1200746EA064602FA3F
:1020D00007F74FEA164646EA0706C3F1200722FA39
:1020E00003F201FA07F721FA03F14FF0000342EA85
:1020F0000702A7E746EA020646EA06464FEA164600
:1021000046EA0106BCBF46EA0646360C4FF000031D
:102110004FF000024FF0000194E72DE9804C9A4601
:10212000934670B491E8380007C831EA400C48BFC4
:1021300034EA430C03D5FFF7E6FDFFF780FFF0BC60
:10214000BDE8008C2DE9804C9A46934670B491E826
:10215000380007C810F0804F08BF13F0804F03D13C
:1021600000F005F8FFF76BFFF0BCBDE8008C20F035
:102170007F4780EA030023F07F4C07EB0C03A3F5B5
:102180007C5300F00040A3F1FE0392F0000F00F03A
:10219000B38095F0000F00F077802DE901494FEAF8
:1021A00011404FEA144621EA004800FB06FC24EAED
:1021B000064708FB06F607FB08F800FB07F718EBD5
:1021C00006484CEB164C4FEA124B18EB07484FEA07
:1021D00015464CEB174022EA0B4E0BFB06FC25EA9A
:1021E00006470EFB06F607FB0EFE0BFB07F71EEB82
:1021F000064E4CEB164C4FF000061EEB074E4CEB18
:10220000174B18EB0B0840F1000018EB0E0B58EBC6
:10221000000840F100008F1A4FF000013CBFC94395
:10222000661B14BFB5EB040C00213CBFC943F61B71
:102230004FEA17444EEA8E0E27EA04454FEA1C4740
:1022400004FB07622CEA074C05FB07F70CFB05F6BD
:1022500004FB0CFC16EB074642EB174216EB0C4650
:1022600042EB1C421BEB060658EB0202414146EAD8
:102270009E0601D5BDE80189B619524141EB010125
:10228000A3F10103BDE801894FEA14454FEA114764
:1022900024EA054621EA074C05FB07F406FB07F78D
:1022A0000CFB06F105FB0CFC11EB074144EB17445A
:1022B0004FEA124711EB0C4144EB1C4422EA074C55
:1022C00005FB07F206FB07F70CFB06F605FB0CFC0B
:1022D00016EB074642EB174216EB0C4642EB1C4549
:1022E0006A1854F1000148BF7047B619524141EBDA
:1022F0000101A3F10103704795F0000F37D04FEAB9
:1023000011424FEA144721EA024624EA074C02FB35
:1023100007F106FB07F70CFB06F402FB0CFC14EBC1
:10232000074441EB17414FEA154714EB0C4441EBCE
:102330001C4125EA074C02FB07F506FB07F70CFBDF
:1023400006F602FB0CFC16EB074645EB174516EBB1
:102350000C4645EB1C42121951F1000148BF704771
:10236000B619524141EB0101A3F1010370474FEA55
:1023700014454FEA114724EA054621EA074C05FBBC
:1023800007F106FB07F70CFB06F24FF0000605FB12
:102390000CFC12EB074241EB174112EB0C4251EBE4
:1023A0001C4148BF7047921841EB0101A3F10103A2
:1023B000704700BFFEE7000010B5024800F01EF9AC
:1023C00010BD00008C04002010B5024800F016F982
:1023D00010BD0000EC0400200146087810381823D6
:1023E000B0FBF3F20848805CC865032A05D9086889
:1023F0006FF30900001D886503E008686FF30900AA
:102400008865886D7047000072BA00080146002098
:102410008A6A8B69CBB932B1012A0DD0022A03D066
:10242000032A10D10EE000BFCB6A03F08073B3F132
:10243000807F00D1012007E0CB6AB3F1C07F00D1DB
:10244000012001E000E000BF34E08B69B3F5005FDC
:102450001AD132B1012A07D0022A03D0032A11D19E
:102460000AE000BF01200EE0CB6A03F08073B3F1F5
:10247000807F00D1012006E0CB6AB3F1C07F00D19C
:10248000012000E000BF15E032B1012A05D0022A88
:1024900004D0032A0CD103E000BF00BF012008E0F4
:1024A000CB6A03F08073B3F1807F00D1012000E09C
:1024B00000BF00BF704730B50468246824F480244E
:1024C00005682C60046863608468402C04D104684B
:1024D000A2600468E16003E00468A1600468E2604F
:1024E00030BD704710B503F023FDFF21002004F03C
:1024F00043F80021012004F03FF80721022004F0F6
:102500003BF80021032004F037F8A721042004F051
:1025100033F8A721052004F02FF804F06FF910BD5F
:1025200072B600BFFEE770B50446A56D00F02AFB49
:10253000064694F83500022808D08020606500BF68
:10254000002084F8340000BF012070BD20680068BE
:1025500020F01600216808602068406920F08000A3
:1025600021684861206C08B9A06C28B12068006817
:1025700020F00800216808602068006820F0010051
:102580002168086010E000F0FDFA801B05280BD9D7
:1025900020206065032084F8350000BF002084F807
:1025A000340000BF0320D0E72068006800F001007D
:1025B0000028E8D194F85C103F208840A8600120F2
:1025C00084F8350000BF002084F8340000BF00BF4D
:1025D000BBE7014691F83500022803D0802048650A
:1025E00001207047052081F835000868006820F058
:1025F00001000A6810600020F3E70000F8B5044607
:10260000002000908C4800684FF41651B0FBF1F7A1
:10261000A56D2E6894F85C1008208840304098B171
:102620002068006800F0040070B12068006820F0A5
:1026300004002168086094F85C1008208840A860B5
:10264000606D40F00100606594F85C1001208840E6
:10265000304068B12068406900F0800040B194F8D3
:102660005C1001208840A860606D40F00200606549
:1026700094F85C1004208840304068B120680068FD
:1026800000F0020040B194F85C1004208840A8607B
:10269000606D40F00400606594F85C101020884084
:1026A000304078B32068006800F0080050B394F818
:1026B0005C1010208840A8602068006800F480202A
:1026C00080B12068006800F4002028B9206CC8B1EF
:1026D0002046216C884715E0A06C98B12046A16C7B
:1026E00088470FE02068006800F4807028B92068EF
:1026F000006820F0080021680860206C10B12046B6
:10270000216C884794F85C102020884030400028D5
:1027100065D02068006800F0100000285FD094F8B1
:102720005C1020208840A86094F83500052828D146
:102730002068006820F01600216808602068406961
:1027400020F0800021684861206C08B9A06C28B195
:102750002068006820F008002168086094F85C1088
:102760003F208840A860012084F8350000BF002089
:1027700084F8340000BF206D10B12046216D8847D9
:10278000F8BD2068006800F4802080B120680068EF
:1027900000F4002028B9606C10B12046616C8847B5
:1027A0001DE0E06BD8B12046E16B884717E0206858
:1027B000006800F4807068B92068006820F010009C
:1027C00021680860012084F8350000BF002084F8EB
:1027D000340000BFE06B10B12046E16B8847606DAC
:1027E00038B3606D00F00100F0B1052084F83500C9
:1027F0002068006820F001002168086000BF009890
:10280000401C0090B84200D905E02068006800F044
:1028100001000028F3D100BF012084F8350000BF7B
:10282000002084F8340000BFE06C10B12046E16C59
:10283000884700BFA4E70000080100202DE9F0410F
:102840000446002500F09EF9074614B90120BDE8B2
:10285000F081606A00B100BF022084F8350000BF3B
:10286000002084F8340000BF2068006820F00100D8
:10287000216808600AE000F085F9C01B052805D929
:1028800020206065032084F83500E0E720680068B8
:1028900000F001000028EED12068056821480540BD
:1028A000D4E901010843E1680843216908436169EB
:1028B0000843A1690843E1690843216A08430543C5
:1028C000606A042803D1D4E90B010843054320685A
:1028D00005602068456925F00705606A0543606A60
:1028E00004280DD1A06A0543E06A48B12046FFF7ED
:1028F0008DFD28B140206065012084F83500A6E7F1
:10290000206845612046FFF767FD064694F85C1095
:102910003F208840B06000206065012084F83500C9
:10292000002094E73F8010F02DE9F04704460D4663
:1029300016461F464FF00008D4F8589000BF94F890
:102940003400012802D10220BDE8F087012084F87C
:10295000340000BF94F83500012825D1022084F806
:102960003500002060653B46324629462046FFF789
:10297000A2FD94F85C103F208840C9F80800206848
:10298000006840F0160021680860206C28B12068BB
:10299000006840F00800216808602068006840F086
:1029A00001002168086006E000BF002084F83400C0
:1029B00000BF4FF002084046C6E70000F8B50246E7
:1029C0000B460025002400200021C7E0012606FA5E
:1029D00001F51E6806EA0504AC4274D11E7906F0C2
:1029E0000306012E04D01E7906F00306022E13D131
:1029F00090684F000326BE40B0434F00DE68BE40E3
:102A000030439060506801268E40B0431E79C6F373
:102A100000168E40304350601E7906F00306032EE8
:102A200009D0D0684F000326BE40B0434F009E68D7
:102A3000BE403043D0601E7906F00306022E13D14B
:102A4000CF0802F1200656F827004E07F70E0F2692
:102A5000BE40B0434F07FF0E1E69BE403043CF0853
:102A600002F1200646F8270010684F000326BE40FA
:102A7000B0431E7906F003064F00BE40304310609D
:102A80005E6806F44036002E67D000BF0026009630
:102A9000344E366846F48046324F3E603E463668D5
:102AA00006F48046009600BF00BF2F4E8F0856F8F0
:102AB00027008E07370F0F26BE40B0432B4EB24281
:102AC00002D1002615E048E0294EB24201D101268C
:102AD0000FE0284EB24201D102260AE0264EB24251
:102AE00001D1032605E0254EB24201D1042600E0C3
:102AF00007268F073F0FBE4030431B4E8F0846F816
:102B000027001F4E3068A0435E6806F4801606B1A9
:102B100020431B4E3060361D3068A0435E6806F4CB
:102B2000001606B12043164E361D3060144E361F77
:102B30003068A0435E6806F4003606B12043104EAC
:102B4000361F3060361F3068A0435E6806F480365A
:102B500006B120430A4E083E3060491C1029FFF49C
:102B600035AFF8BD4438024008380140000002404B
:102B70000004024000080240000C02400010024025
:102B8000083C01400148006870470000FC0000203C
:102B90000348006803490978084401490860704700
:102BA000FC0000200401002010B50D48006840F42E
:102BB00000700B4908600846006840F480600860B7
:102BC0000846006840F480700860032000F0D6F8E2
:102BD0000F2000F007F800F055F8002010BD0000AD
:102BE000003C0240F0B587B004460026002700BF35
:102BF000002000901E48006840F480301C490860A6
:102C00000846006800F48030009000BF00BF01A9B2
:102C100002A800F089F900F0BFF906461548B6FB96
:102C2000F0F0471E14481549086040F2E731134898
:102C3000C1604760002101618160816100F064FC36
:102C4000054695B90D4800F093FC05466DB918206E
:102C500000F042F8102C07D200222146182000F084
:102C60004FF80748046000E00125284607B0F0BD92
:102C70004438024040420F00004001408C070020D1
:102C80000001002008B500BF002000901148006836
:102C900040F480400F4908600846006800F4804016
:102CA000009000BF00BF00BF00200090081F006818
:102CB00040F08050091F08600846006800F080500E
:102CC000009000BF00BF00220F21901E00F018F8F6
:102CD00008BD0000443802400146084600280DDBCC
:102CE00000BF00BF00F01F0301229A4043099B0070
:102CF00003F1E023C3F8002100BF00BF00BF70470D
:102D00002DE9F05F80460D461646002702F024FFAD
:102D1000074639462A46334601F00700C0F1070A44
:102D2000BAF1040F02D94FF0040A01E0C0F1070A1A
:102D3000D14600F1040ABAF1070F02D24FF0000A9F
:102D400001E0A0F1030AD4464FF0010A0AFA09FA99
:102D5000AAF1010A0AEA020A0AFA0CFA4FF0010B78
:102D60000BFA0CFBABF1010B0BEA030B4AEA0B0469
:102D70002146404602F0F8FEBDE8F09F00BF00F09B
:102D80000702064B19684FF6FF031940044B0B432B
:102D900043EA0221014B196000BF70470CED00E0CF
:102DA0000000FA0570B504460D460CB9012070BD4F
:102DB0005848006800F00700A84209D255490D7034
:102DC0000846006800F00700A84201D00120EEE7A5
:102DD000207800F0020002281DD1207800F00400C5
:102DE000042805D14C48006840F4E0504A49086086
:102DF000207800F00800082805D14748006840F412
:102E00006040454908604448006820F0F000A1682F
:102E1000084341490860207800F00100A8B36068C9
:102E2000012807D13C4808380068C0F34040B8B9D1
:102E30000120BCE76068022802D06068032807D13F
:102E4000354808380068C0F3406048B90120AEE753
:102E5000314808380068C0F3400008B90120A6E7EF
:102E60002D48006820F00300616808432A49086083
:102E7000FFF788FE064609E0FFF784FE801B41F25B
:102E80008831884202D9032091E707E02248006890
:102E900000F00C006168B0EB810FEDD11D480068B7
:102EA00000F00700A84209D91A490D7008460068C9
:102EB00000F00700A84201D0012078E7207800F058
:102EC0000400042807D11448006820F4E050E168A9
:102ED000084311490860207800F00800082808D14C
:102EE0000D48006820F46040216940EAC1000A49A9
:102EF000086000F061F808490968C1F30311074A46
:102F0000515CC8400649086006480068FFF76AFE41
:102F100000204CE7003C0240083802407ABA000822
:102F200008010020000100200F2202600D4A1268F3
:102F300002F0030242600B4A126802F0F002826063
:102F4000084A126802F4E052C260064A126802F4AB
:102F50006042D2080261044A126802F007020A6065
:102F60007047000008380240003C024001480068F9
:102F7000704700000801002000B5FFF7F7FF044983
:102F80000968C1F38221034A515CC84000BD0000BA
:102F9000083802408ABA000800B5FFF7E7FF044985
:102FA0000968C1F34231034A515CC84000BD0000CA
:102FB000083802408ABA00082DE9F04700240025AD
:102FC0000026A1462548006800F00C0020B1042826
:102FD00005D008283AD105E0DFF8849039E0DFF821
:102FE000849036E01D48001F006800F03F041B4835
:102FF000001F006800F4800078B11A481749091FC3
:103000000968C1F38811A0FB017001462246002324
:103010003846FDF761FA05460EE011480F49091FD1
:103020000968C1F38811A0FB017001462246002304
:103030003846FDF751FA05460848001F0068C0F3FE
:103040000140401C4600B5FBF6F902E0DFF81090A5
:1030500000BF00BF4846BDE8F087000008380240C6
:103060000024F40040787D01F8B504460CB9012035
:10307000F8BD207800F00100002874D0F9480068FD
:1030800000F00C0004280DD0F648006800F00C0099
:10309000082813D1F348001F006800F48000B0F541
:1030A000800F0BD1EF4808380068C0F3404000287B
:1030B00059D06068002856D10120D9E700BF606868
:1030C000B0F5803F08D1E7480838006840F4803008
:1030D000E449083908601EE06068B0F5A02F0DD102
:1030E000E0480838006840F48020DE49083908606C
:1030F0000846006840F4803008600CE0D948083881
:10310000006820F48030D749083908600846006814
:1031100020F48020086000BF606890B1FFF732FDA6
:10312000054606E0FFF72EFD401B642801D9032069
:103130009EE7CC4808380068C0F340400028F1D032
:1031400011E0FFF71FFD054606E0FFF71BFD401BE2
:10315000642801D903208BE7C24808380068C0F30F
:1031600040400028F1D1207800F0020002285FD111
:10317000BC48006800F00C0058B1BA48006800F084
:103180000C0008281CD1B748001F006800F480001C
:10319000B0B9B44808380068C0F3400020B1E06816
:1031A000012801D0012063E7AE480838006820F00C
:1031B000F800216940EAC100AA490839086037E0EF
:1031C000E06800B30120A8490860FFF7DBFC054672
:1031D00006E0FFF7D7FC401B022801D9032047E790
:1031E000A04808380068C0F340000028F1D09D488E
:1031F0000838006820F0F800216940EAC1009949C8
:103200000839086014E0002097490860FFF7BAFC0D
:10321000054606E0FFF7B6FC401B022801D9032053
:1032200026E7904808380068C0F340000028F1D134
:10323000207800F0080008282CD16069A8B101208E
:103240008A490860FFF79EFC054606E0FFF79AFCF6
:10325000401B022801D903200AE782486C3000682D
:10326000C0F340000028F1D014E000207F4908603E
:10327000FFF788FC054606E0FFF784FC401B0228A8
:1032800001D90320F4E677486C300068C0F34000B1
:103290000028F1D1207800F00400042870D1002724
:1032A00070483830006800F0805090B900BF0020AE
:1032B00000906C483830006840F0805069493831DF
:1032C00008600846006800F08050009000BF00BF12
:1032D00001276748006800F48070B0B9644800684E
:1032E00040F4807062490860FFF74CFC054606E038
:1032F000FFF748FC401B022801D90320B8E65C48D0
:10330000006800F480700028F2D000BFA068012897
:1033100008D154486830006840F0010051496831D4
:1033200008601DE0A06805280DD14E48683000688F
:1033300040F004004B49683108600846006840F0DE
:10334000010008600CE047486830006820F0010088
:103350004449683108600846006820F004000860AD
:1033600000BFA068A8B1FFF70DFC054609E0FFF714
:1033700009FC401B41F28831884202D9032077E6DC
:1033800026E0384868300068C0F340000028EED0DE
:1033900013E0FFF7F7FB054608E0FFF7F3FB401BE0
:1033A00041F28831884201D9032061E62D48683016
:1033B0000068C0F340000028EFD1012F07D1294851
:1033C0003830006820F0805026493831086000BF4E
:1033D000A069002845D02348006800F00C000828A8
:1033E0005DD0A069022845D100201F490866FFF77B
:1033F000C9FB054606E0FFF7C5FB401B022801D9C3
:10340000032035E6174808380068C0F340600028FC
:10341000F1D1D4E907010843616A40EA8111012230
:10342000A06AC2EB500041EA00412C20005D41EA55
:1034300000600C49091F086001200B490866FFF76E
:10344000A1FB054606E0FFF79DFB401B022801D9C2
:1034500003200DE6034808380068C0F340600028E8
:10346000F1D049E00838024000004742800E474250
:1034700000700040002021490866FFF783FB0546E5
:1034800006E0FFF77FFB401B022801D90320EFE590
:103490001B480068C0F340600028F2D12CE0A0690E
:1034A000012800D1E4E51648001D0668A06901283E
:1034B00020D006F48001E06981421BD106F03F0173
:1034C000206A814216D147F6C0703040616AB0EB85
:1034D000811F0FD106F440310122A06AC2EB5000D7
:1034E000B1EB004F06D106F070612C20005DB1EB0E
:1034F000006F01D00120BBE50020B9E50000474284
:10350000003802407047704710B504460CB90120DE
:1035100010BD94F83D0028B9002084F83C002046F6
:1035200000F025F8022084F83D00211D206801F0FC
:10353000DDFC012084F8460000BF84F83E00012134
:103540003F200155402001554120015500BF00BFDB
:10355000012084F8420043200155442001554520B4
:10356000015500BF012084F83D000020D0E77047DE
:10357000014691F83D00012801D00120704702204A
:1035800081F83D000868C06840F001000B68D86011
:10359000164B0868984213D00868B0F1804F0FD0DE
:1035A000134B086898420BD0124B0868984207D01A
:1035B000114B0868984203D0104B086898420CD110
:1035C0000868806800F00702062A0CD008680068C6
:1035D00040F001000B68186005E00868006840F0E2
:1035E00001000B6818600020C8E7000000000140DF
:1035F0000004004000080040000C00400040014072
:10360000704770B504462068C5682068066906F0F2
:103610000200022819D105F00200022815D1401F2E
:1036200021680861012020772068806900F003008C
:1036300018B12046FFF7E4FF05E0204600F097F8B8
:10364000204600F095F80020207706F004000428BA
:1036500019D105F00400042815D1C0432168086180
:10366000022020772068806900F4407018B120465D
:10367000FFF7C6FF05E0204600F079F8204600F08D
:1036800077F80020207706F00800082819D105F007
:103690000800082815D1C04321680861042020775C
:1036A0002068C06900F0030018B12046FFF7A8FFAA
:1036B00005E0204600F05BF8204600F059F80020B5
:1036C000207706F01000102819D105F010001028FE
:1036D00015D1C04321680861082020772068C0699F
:1036E00000F4407018B12046FFF78AFF05E020463D
:1036F00000F03DF8204600F03BF80020207706F06F
:10370000010048B105F0010030B16FF001002168FF
:103710000861204600F02EF806F08000802809D1CC
:1037200005F08000802805D1C0432168086120464B
:10373000FFF7E8FE06F04000402809D105F0400000
:10374000402805D1C04321680861204600F01EF8DA
:1037500006F02000202809D105F02000202805D1FE
:10376000C043216808612046FFF7CDFE70BD704759
:103770007047000010B5044603492068884201D113
:10378000FFF706FA10BD000000400140704700003E
:1037900070B504460D46024803F0CCFE70BD000033
:1037A000DC010020704700002DE9F84F0446206836
:1037B00005682068C668206847694FF00009CA4656
:1037C00005F00F09B9F1000F0AD105F0200038B15A
:1037D00006F0200020B1204601F007FDBDE8F88F7B
:1037E000B9F1000F7CD007F0010018B906F4907011
:1037F000002875D005F0010030B106F4807018B1D2
:10380000606C40F00100606405F0040030B107F026
:10381000010018B1606C40F00200606405F0020025
:1038200030B107F0010018B1606C40F00400606432
:1038300005F0080048B106F0200010B907F00100BB
:1038400018B1606C40F008006064606C002846D0DD
:1038500005F0200028B106F0200010B1204601F04C
:10386000C4FC20684069C0F3801A606C00F0080056
:1038700010B9BAF1000F2DD0204601F05DFC206890
:10388000406900F04000402820D100BF00BF2168FF
:10389000143151E8001F21F040002168143141E843
:1038A0000002002AF3D100BFE06B50B17F48E16B0A
:1038B0000865E06BFEF78DFE88B1E06B016D88470F
:1038C0000DE02046FFF76EFF09E009E02046FFF714
:1038D00069FF04E02046FFF765FF002060647DE794
:1038E000206B012878D105F01000002874D006F074
:1038F00010000028FAD000BF002000902068006867
:10390000009020684068009000BF00BF20684069B8
:1039100000F04000402870D1E06B006840681FFA5A
:1039200080F8B8F1000F58D0A08D404555DDA4F8BF
:103930002E80E06BC069B0F5807F43D000BF00BF30
:1039400021680C3151E8001F21F4807021680C318E
:1039500041E80002002AF3D100BF00BF00BF216888
:10396000143151E8001F21F001002168143141E8B1
:103970000002002AF3D100BF00BF00BF216814314C
:1039800051E8001F21F040002168143141E8000295
:10399000002AF3D100BF202084F8420000202063D9
:1039A00000BF00BF21680C3151E8001F21F010005A
:1039B00021680C3141E80002002AF3D100BFE06B1E
:1039C000FEF7B1FD02206063A08DE28D801A81B206
:1039D0002046FFF7DDFE0EE052E0A08D40450AD103
:1039E000E06BC069B0F5807F05D102206063A18DD6
:1039F0002046FFF7CDFEF1E6FFE7A08DE18D401AEE
:103A00001FFA80F8E08DD0B3B8F1000F37D000BFB7
:103A100000BF21680C3151E8001F21F4907021682B
:103A20000C3141E80002002AF3D100BF00BF00BF03
:103A30002168143151E8001F21F001002168143180
:103A400041E80002002AF3D100BF202084F84200A0
:103A50000020206300BF00BF21680C3151E8001F27
:103A600021F0100021680C3141E80002002AF3D156
:103A700000BF0220606341462046FFF789FEADE6A5
:103A800005F0800030B106F0800018B1204601F04A
:103A9000ADFDA3E605F0400030B106F0400018B1DE
:103AA000204601F07FFB99E600BF97E6994F00089A
:103AB00010B504460CB9012010BDA06900B100E0AA
:103AC00000BF94F8410028B9002084F84000204647
:103AD00000F02AF8242084F841002068C06820F40F
:103AE00000502168C860204601F0FEFB2068006994
:103AF00020F49040216808612068406920F02A0085
:103B0000216848612068C06840F400502168C8609E
:103B100000206064202084F8410084F842000020E6
:103B2000606300BFC8E7000010B586B004461421EA
:103B300001A8FDF75EF85B492068884279D100BF93
:103B4000002000905848006840F010005649086076
:103B50000846006800F01000009000BF00BF00BFE2
:103B60000020009050481438006840F001004E4991
:103B7000143908600846006800F00100009000BF9A
:103B800000BF4FF4C060019002200290002003901B
:103B9000032004900720059001A94448FEF70EFF7A
:103BA0004348444908604FF00060486000214148A4
:103BB0008160C1604FF480610161002141618161D8
:103BC0004FF48071C161002101624162FEF736FE4F
:103BD00008B1FEF7A5FC00BF3648E063846300BF70
:103BE00033487830344908604FF000604860402125
:103BF000314881600021C1604FF480610161002182
:103C000041618161C16101624162FEF717FE08B145
:103C1000FEF786FC00BF2848A063846300BF002233
:103C200005212520FFF76CF82520FFF755F836E031
:103C3000FFE722492068884231D100BF0020009070
:103C40001948001F006840F400301749091F086038
:103C50000846006800F40030009000BF00BF00BFBD
:103C60000020009010481438006840F001000E4910
:103C7000143908600846006800F00100009000BF99
:103C800000BF0C200190022002900020039003202E
:103C900004900720059001A90448FEF78FFE06B0A6
:103CA00010BD0000001001404438024000000240F6
:103CB000406402408C040020EC04002000440040DA
:103CC00070B504460D46164694F8420020280BD1E4
:103CD00005B10EB9012070BD00202063324629468F
:103CE000204601F017FCF6E70220F4E710B5044681
:103CF000014803F01FFC10BDDC01002010B5044694
:103D0000014803F017FC10BDDC010020F7B50446A4
:103D1000154694F8410020283ED1019800B10DB914
:103D20000120FEBD01982062A584E5840020606426
:103D3000212084F841001948A16BC8631848A16B81
:103D400008641848A16BC8640020A16B086501AE27
:103D500023681A1D31682B46A06BFEF7E5FD30B1D4
:103D600010206064202084F841000120D9E76FF022
:103D700040002168086000BF00BF2168143151E88D
:103D8000001F41F080002168143141E80002002A40
:103D9000F3D100BF0020C4E70220C2E7D3500008DF
:103DA0002B510008AB4F000810B50446014805F040
:103DB0006FFB10BDEC030020704700BFFEE7000062
:103DC00008B500BF002000900E48006840F4800055
:103DD0000C4908600846006800F48000009000BFAD
:103DE00000BF002205213A20FEF78AFF3A20FEF7A5
:103DF00073FF002205214620FEF782FF4620FEF7D2
:103E00006BFF08BD3038024010B50C4A00210C4849
:103E100003F001FD0B4908600B4A00210B4803F039
:103E2000FAFC0B4A00210B4803F0F5FC0A4A00217A
:103E30000A4803F0F0FC0A49086010BD94B8000875
:103E4000054C000894000020B8B8000895910008BF
:103E5000DCB800082D92000800B90008E9920008BB
:103E60009800002008B500BF0020009015480068A9
:103E700040F00400134908600846006800F00400A0
:103E8000009000BF00BF00BF0020009008460068FF
:103E900040F0800008600846006800F08000009054
:103EA00000BF00BF00BF002000900846006840F03F
:103EB000010008600846006800F00100009000BFA3
:103EC00000BF08BD3038024010B50B480B490860F0
:103ED0004FF4E1304860002108488160C160016111
:103EE0000C21416100218161C161FFF7E1FD08B151
:103EF000FEF716FB10BD000000100140FC0300207F
:103F000010B50B480B4908604FF4E13048600021C0
:103F100008488160C16001610C214161002181611B
:103F2000C161FFF7C5FD08B1FEF7FAFA10BD000048
:103F3000004400404404002000BFFEE700BFFEE74D
:103F40002DE9F74F8346174600BF2248007808B98D
:103F500001F09CFB00BF0BEB4B011E48603000EBF7
:103F6000C106DDF804903569D6F80CA04FF00008C2
:103F7000554515D9B068441BBC4201D2204600E02B
:103F8000384604467068411922464846FCF7C2FD8F
:103F9000A044A1443F1B2544B068A84200D100259D
:103FA000AAEB0504BC4201D2204600E03846044694
:103FB0004CB17068411922464846FCF7ABFDA0445D
:103FC000A1443F1B2544B8F1000F00D035614046A5
:103FD000BDE8FE8F4C5B00202DE9F04104460D4604
:103FE000164600BF0D48007808B901F04FFB00BF2E
:103FF000EFF311800746202080F3118800BF00BF37
:1040000032462946204600F00BF88046F8B280F38D
:10401000118800BF00BF4046BDE8F0814C5B002026
:104020002DE9F047074688461646C24607EB47018A
:104030001B4800EBC109D9F8140020B1012811D0A8
:10404000022826D11EE0484601F073FB0546B54222
:1040500001D2002405E0344632465146484601F07C
:104060003CFD18E0484601F064FB0546B54201D22C
:10407000284600E03046044622465146484601F0B4
:104080002CFD08E032465146484601F0EDFC04465E
:1040900001E0002400BF00BF2046BDE8F08700001B
:1040A000645B00202DE9F84F82468B461546CDF81B
:1040B00000B00AEB4A011D4800EBC104D4F810908F
:1040C000E668B14529D8A068801B471EAF420BD3D4
:1040D00000BF616888192A460099FCF71BFD70191A
:1040E000E0600120BDE8F88F4F44AF421BD3A068C9
:1040F000A0EB06086168881942460099FCF70AFDA2
:10410000A5EB080535B1009A02EB08012A46606864
:10411000FCF700FDE5600120E4E7A9EB0600471E7F
:10412000AF4200D3D5E70020DCE70000645B00204D
:1041300070B5EFF311800646202080F3118800BF90
:1041400000BF284801F058FB05462C462046264A69
:10415000516805E0CAB242F0800200F8012BC9099B
:104160007F29F7D800F8011B044620461E4A9168B3
:1041700005E0CAB242F0800200F8012BC9097F298C
:10418000F7D800F8011B04462046174A116905E0DC
:10419000CAB242F0800200F8012BC9097F29F7D882
:1041A00000F8011B04462046002105E0CAB242F097
:1041B000800200F8012BC9097F29F7D800F8011BFC
:1041C000044618222146284601F01AFBF0B280F37B
:1041D000118800BF00BF0448406A10B10249486A14
:1041E000804770BDD0540020A854002070B5EFF374
:1041F00011800446202080F3118800BF00BF0748CB
:1042000001F0FAFA054611222946284601F0F8FA8B
:10421000E0B280F3118800BF00BF70BDD054002011
:104220002DE9F0410446EFF311800746202080F38A
:10423000118800BF00BF114801F0DEFA05462E4686
:104240000F480069241A3046214605E0CAB242F000
:10425000800200F8012BC9097F29F7D800F8011B5B
:10426000064608223146284601F0CAFAF8B280F321
:10427000118800BF00BFBDE8F0810000D0540020CD
:10428000A85400202DE9F0410446EFF311800746C1
:10429000202080F3118800BF00BF114801F0ACFA64
:1042A00005462E460F480069241A3046214605E08F
:1042B000CAB242F0800200F8012BC9097F29F7D861
:1042C00000F8011B064604223146284601F098FA00
:1042D000F8B280F3118800BF00BFBDE8F081000094
:1042E000D0540020A85400202DE9F0410446EFF3FB
:1042F00011800746202080F3118800BF00BF1148BD
:1043000001F07AFA05462E460F480069241A304615
:10431000214605E0CAB242F0800200F8012BC9092B
:104320007F29F7D800F8011B0646062231462846A9
:1043300001F066FAF8B280F3118800BF00BFBDE853
:10434000F0810000D0540020A854002070B50C4823
:10435000006A78B10A48006A006858B10849096AD9
:104360000868804704460D462A4621460D2000F085
:1043700039F804E0034841680C2000F005F870BDEE
:10438000A8540020001000E02DE9F04105460E463B
:10439000EFF311808046202080F3118800BF00BF1A
:1043A0000F4801F029FA044627463846314605E011
:1043B000CAB242F0800200F8012BC9097F29F7D860
:1043C00000F8011B07462A463946204601F018FA34
:1043D00008F0FF0080F3118800BF00BFBDE8F08146
:1043E000D05400202DE9F04706460F469046EFF3E3
:1043F00011808146202080F3118800BF00BF17483C
:1044000001F0FAF905462C462046394605E0CAB2C5
:1044100042F0800200F8012BC9097F29F7D800F883
:10442000011B04462046414605E0CAB242F0800224
:1044300000F8012BC9097F29F7D800F8011B0446B1
:1044400032462146284601F0DBF909F0FF0080F3EF
:10445000118800BF00BFBDE8F0870000D0540020E5
:104460002DE9F04706460F4690469946EFF3118036
:104470008246202080F3118800BF00BF1D4801F054
:10448000BBF905462C462046394605E0CAB242F043
:10449000800200F8012BC9097F29F7D800F8011B19
:1044A00004462046414605E0CAB242F0800200F8C8
:1044B000012BC9097F29F7D800F8011B04462046C3
:1044C000494605E0CAB242F0800200F8012BC90952
:1044D0007F29F7D800F8011B0446324621462846BA
:1044E00001F08EF90AF0FF0080F3118800BF00BFD1
:1044F000BDE8F087D05400202DE9F05F06460F4656
:1045000090469946DDF828A0EFF3118083462020DD
:1045100080F3118800BF00BF244801F06DF9054603
:104520002C462046394605E0CAB242F0800200F827
:10453000012BC9097F29F7D800F8011B0446204642
:10454000414605E0CAB242F0800200F8012BC909D9
:104550007F29F7D800F8011B04462046494605E0AC
:10456000CAB242F0800200F8012BC9097F29F7D8AE
:1045700000F8011B04462046514605E0CAB242F04D
:10458000800200F8012BC9097F29F7D800F8011B28
:10459000044632462146284601F032F90BF0FF006E
:1045A00080F3118800BF00BFBDE8F09FD054002009
:1045B00070B50446EFF311800546202080F3118882
:1045C00000BF00BF074801F017F9064622463146F2
:1045D000304601F015F9E8B280F3118800BF00BF42
:1045E00070BD0000D05400202DE9F0470646294850
:1045F000006800284CD027480468002703E024699D
:1046000004B902E07F1CB742F9D300BF002C3AD0B6
:10461000EFF311808146202080F3118800BF00BF96
:104620001D4801F0E9F8804645462846314605E038
:10463000CAB242F0800200F8012BC9097F29F7D8DD
:1046400000F8011B05462846A16805E0CAB242F001
:10465000800200F8012BC9097F29F7D800F8011B57
:10466000054680222846216801F048F805461622B2
:104670002946404601F0C4F809F0FF0080F3118894
:1046800000BF00BF00BF1CB1E06808B1E068804710
:10469000BDE8F0879C010020D054002010B50748E9
:1046A000006848B10548046800BFE06808B1E068E8
:1046B00080472469002CF8D110BD00009C01002027
:1046C00070B5EFF311800646202080F3118800BFFB
:1046D00000BF0F4801F090F80446254628460D4AD1
:1046E000117805E0CAB242F0800200F8012BC90936
:1046F0007F29F7D800F8011B05461B2229462046D2
:1047000001F07EF8F0B280F3118800BF00BF70BDE9
:10471000D0540020A00100202DE9F0410446EFF321
:1047200011800746202080F3118800BF00BF3B485E
:1047300001F062F8064635462846394B22681B6967
:10474000D11A05E0CAB242F0800200F8012BC90973
:104750007F29F7D800F8011B05462846A16805E027
:10476000CAB242F0800200F8012BC9097F29F7D8AC
:1047700000F8011B054620222846616800F0BEFFB4
:10478000054609222946304601F03AF835462846C2
:10479000234B22681B69D11A05E0CAB242F080029D
:1047A00000F8012BC9097F29F7D800F8011B05463D
:1047B0002846E16805E0CAB242F0800200F8012B09
:1047C000C9097F29F7D800F8011B05462846216949
:1047D00005E0CAB242F0800200F8012BC9097F2926
:1047E000F7D800F8011B05462846616905E0CAB202
:1047F00042F0800200F8012BC9097F29F7D800F8A0
:10480000011B054615222946304600F0F9FFF8B293
:1048100080F3118800BF00BFBDE8F081D0540020B4
:10482000A854002010B50648006A38B10448006A50
:10483000406818B10249096A4868804710BD000005
:10484000A8540020014602480069081A7047000079
:10485000A854002070B501203A490870EFF3118088
:104860000446202080F3118800BF00BF48780A2248
:104870003549FFF717FCE0B280F3118800BF00BF95
:104880000A20FFF795FEEFF311800646202080F303
:10489000118800BF00BF2D4800F0AEFF05462C4632
:1048A0002046284A516805E0CAB242F0800200F86A
:1048B000012BC9097F29F7D800F8011B04462046BF
:1048C000204A916805E0CAB242F0800200F8012B4C
:1048D000C9097F29F7D800F8011B04462046194A68
:1048E000116905E0CAB242F0800200F8012BC90943
:1048F0007F29F7D800F8011B04462046002105E077
:10490000CAB242F0800200F8012BC9097F29F7D80A
:1049100000F8011B044618222146284600F070FFCB
:10492000F0B280F3118800BF00BF0648406A10B1A2
:104930000449486A8047FFF709FDFFF773FFFFF757
:10494000BFFE70BDA854002038BB0008D054002022
:1049500070B5EFF311800546202080F3118800BF69
:1049600000BF0A4800F048FF04460948007838B103
:104970000B222146204600F043FF00200449087026
:10498000E8B280F3118800BF00BF70BDD054002092
:10499000A85400202DE9F0410546EFF311800646AA
:1049A000202080F3118800BF00BF194800F024FFC9
:1049B000074680222946384600F0A0FE04462046DD
:1049C000012105E0CAB242F0800200F8012BC909BA
:1049D0007F29F7D800F8011B04462046002105E096
:1049E000CAB242F0800200F8012BC9097F29F7D82A
:1049F00000F8011B04461A222146384600F000FF49
:104A0000F0B280F3118800BF00BFBDE8F081000064
:104A1000D05400202DE9F84305460C4616461F46A3
:104A2000DDF82080052221A12046FBF7AFFF08B961
:104A3000BDE8F8831F480068082803D31E48FFF725
:104A4000A9FFF5E71B48006800EB80001B4941F80F
:104A500020501848006800EB800001EB80004460A3
:104A60001448006800EB800001EB8000866011486C
:104A7000006800EB800001EB8000C7600D48006813
:104A800000EB800001EB8000C0F81080094800684E
:104A9000401C084908603B46324621462846CDF86E
:104AA000008000F095F800BFC2E7000049444C4583
:104AB00000000000A40100209CBD0008B4550020A7
:104AC00070B505464048006800B970BD002408E094
:104AD00004EB84003D4951F82000A84200D104E0D5
:104AE000641C394800688442F2D300BF364800682D
:104AF000401EA0420DD104EB8401344A02EB810038
:104B00001421FCF776F830480068401E2E490860F2
:104B100057E02D480068844253D22B480068401E5D
:104B200000EB8000294951F8200004EB8401274A5A
:104B300042F8210024480068401E00EB8000114626
:104B400001EB8000406804EB840102EB81014860C6
:104B50001D480068401E00EB8000114601EB8000FC
:104B6000806804EB840102EB8101886016480068CC
:104B7000401E00EB8000114601EB8000C06804EB92
:104B8000840102EB8101C8600F480068401E00EB01
:104B90008000114601EB8000006904EB840102EB08
:104BA0008101086108490968491E01EB810102EB96
:104BB00081001421FCF71DF803480068401E0249DB
:104BC000086000BF81E70000A4010020B455002068
:104BD0002DE9F04186B004460D4616461F46DDF825
:104BE000308018216846FCF704F80094019502967D
:104BF0000397CDF810806846FFF78EFD06B0BDE83C
:104C0000F08100000EB553A0EF21584B58A2CDE91A
:104C100000105DA1032001F0B3F95D495D4804F087
:104C20000FFD054655B15CA0F421504B50A2CDE9D3
:104C3000001055A1032001F0A3F977E05C4A07CAF0
:104C40008DE8070053480022694683689847594811
:104C5000029008208DF800004E48002269468368C3
:104C60009847554802900A208DF8000049480022D4
:104C7000694683689847514802900C208DF80000DF
:104C8000444800226946836898474D4802900B20AB
:104C90008DF800003F4800226946836898474948DC
:104CA00002900F208DF800003A4800226946836880
:104CB0009847454802900E208DF8000035480022A4
:104CC0006946836898474148029012208DF8000099
:104CD000304800226946836898473D480290132077
:104CE0008DF800002B4800226946836898473948B0
:104CF000029010208DF80000264800226946836843
:104D000098473548029011208DF800002148002274
:104D1000694683689847314802900D208DF800005D
:104D20001C48002269468368984700BF2C492D48DB
:104D300004F08EFD044654B12BA040F223110B4B1E
:104D40000BA2CDE9001010A1032001F019F902F027
:104D50005DFD000064656661756C74207461736B41
:104D600020626567696E0D0A0000000024B9000822
:104D70002E2E2F436F72652F5372632F66726565F7
:104D800072746F732E6300004E4F5F5441470000F2
:104D900028000020DC010020756172742070726FA1
:104DA000746F20696E7374206572726F72000000F8
:104DB00038B90008FD6A0008596B0008516C0008FA
:104DC000D56B0008C56D0008496D0008396F0008F3
:104DD000B56F0008416E0008BD6E0008CD6C00087C
:104DE00084000020EC030020756172742073656EEE
:104DF0006420696E7374206572726F720000000027
:104E000010B54FF0E020006906F02AFA012801D021
:104E100005F0C0FB10BD000000B593B0302107A81D
:104E2000FBF7E7FE142102A8FBF7E3FE00BF00201A
:104E300001902348006840F08050214908600846EE
:104E4000006800F08050019000BF00BF00BF00204C
:104E500001901C48006840F440401A490860084628
:104E6000006800F44040019000BF00BF012007909F
:104E70000004089002200D9041050E910C210F9125
:104E800060211091022111910421129107A8FEF7CF
:104E9000EBF808B1FDF744FB0F20029002200390CD
:104EA000002004904FF480500590002006900321CC
:104EB00002A8FDF777FF08B1FDF732FB13B000BD84
:104EC00040380240007000400348006840F4700021
:104ED000014908607047000088ED00E010B5024805
:104EE000FEF78FFB10BD00008C07002010B5026894
:104EF000224B98420BD0B0F1804F08D0204B984203
:104F000005D0204B984202D01F4B984203D122F08B
:104F100070024B681A43194B984214D0B0F1804F7D
:104F200011D0174B98420ED0164B98420BD0164B0F
:104F3000984208D0154B984205D0154B984202D0A4
:104F4000144B984203D122F44072CB681A4322F0EA
:104F500080034C6943EA04028B68C3620B68836276
:104F6000064B984201D10B690363036843F00403C5
:104F7000036001234361026010BD00000000014096
:104F80000004004000080040000C004000400140C8
:104F9000004401400048014070B50446A56B002064
:104FA000E8852846FEF7FEFB70BD70B50646002575
:104FB000B46B20684069C0F3C01594F84100212803
:104FC00005D125B10020E084204600F0FBF82068E0
:104FD0004069C0F3801594F84200222805D125B11C
:104FE0000020E085204600F0A7F8606C40F010003B
:104FF00060642046FEF7D6FB70BD70B50546AC6B0D
:105000002868006800F48070002842D1E08500BF65
:1050100000BF21680C3151E8001F21F48070216825
:105020000C3141E80002002AF3D100BF00BF00BFED
:105030002168143151E8001F21F00100216814316A
:1050400041E80002002AF3D100BF00BF00BF216881
:10505000143151E8001F21F040002168143141E86B
:105060000002002AF3D100BF202084F84200206B08
:1050700001280ED100BF00BF21680C3151E8001F8C
:1050800021F0100021680C3141E80002002AF3D120
:1050900000BF00206063206B012804D1A18D204651
:1050A000FEF776FB02E02046FEF720FE70BD70B5ED
:1050B0000546AC6B01206063206B012805D1A08DF3
:1050C00041082046FEF764FB02E02046FEF716FE8C
:1050D00070BD70B50546AC6B2868006800F4807040
:1050E000F8B90020E08400BF00BF2168143151E806
:1050F000001F21F080002168143141E80002002ADD
:10510000F3D100BF00BF00BF21680C3151E8001F80
:1051100041F0400021680C3141E80002002AF3D13F
:1051200002E02046FEF740FE70BD70B50446A56B58
:105130002846FEF741FE70BD00BF00BF02680C327A
:1051400052E8002F22F4907102680C3242E80013FA
:10515000002BF3D100BF00BF00BF0268143252E839
:10516000002F22F001010268143242E80013002BE4
:10517000F3D100BF016B01290ED100BF00BF02684F
:105180000C3252E8002F22F0100102680C3242E883
:105190000013002BF3D100BF202180F84210002122
:1051A0000163704710B504462068C06820F04000D5
:1051B0002168C860202084F841002046FEF7F4FDF5
:1051C000002010BD00BF00BF02680C3252E8002F63
:1051D00022F0C00102680C3242E80013002BF3D128
:1051E00000BF202180F841107047F8B50446002523
:1051F000002694F84200222873D1A068B0F5805FA1
:105200000BD1206948B9A66A20684068C0F308003D
:105210003080A06A801CA06214E0A56AA068B0F586
:10522000805F03D0A06828B9206918B92068406859
:10523000287004E02068406800F07F002870A06AB1
:10524000401CA062E08D401E80B2E085002846D15F
:105250002068C06820F020002168C8602068C0680D
:1052600020F480702168C8602068406920F0010047
:1052700021684861202084F8420000206063206B90
:10528000012826D10020206300BF00BF21680C3117
:1052900051E8001F21F0100021680C3141E80002A4
:1052A000002AF3D100BF2068006800F01000102829
:1052B0000AD100BF0020009020680068009020689C
:1052C0004068009000BF00BFA18D2046FEF760FA45
:1052D00002E02046FEF70AFD0020F8BD01E00020B4
:1052E000FBE70220F9E700002DE9F84F04462068AB
:1052F000006920F44050E168084321680861216991
:10530000A068084361690843E16908430090206888
:10531000C06849F20C618843009908432168C8605D
:105320002068406920F44070A16908432168486101
:1053300076492068884203D075492068884203D1A5
:10534000FDF72AFE814602E0FDF716FE8146E06980
:10535000B0F5004F6CD102206168A0FB01500346FC
:105360001920A9FB007001462A463846FBF7B4F81D
:105370006421B0FBF1F04FEA001A02206168A0FB43
:1053800001510B461920A9FB00712A463846FBF74C
:10539000A3F8834602206168A0FB01500346192050
:1053A000A9FB00712A463846FBF796F86421B0FB4A
:1053B000F1F000EBC00101EB0010ABEB80003221FB
:1053C00001EBC0006421B0FBF1F000F0F8000AEB43
:1053D000400A02206168A0FB015003461920A9FB86
:1053E000007001462A463846FBF776F883460220CD
:1053F0006168A0FB015003461920A9FB00712A46F1
:105400003846FBF769F86421B0FBF1F000EBC0010E
:1054100001EB0010ABEB8000322101EBC0006421F6
:10542000B0FBF1F000F007005044216888606AE0AA
:1054300004206168A0FB015003461920A9FB0070FD
:1054400001462A463846FBF747F882460420616841
:10545000A0FB015003461920A9FB007001462A4613
:105460003846FBF739F86421B0FBF1F000EBC001DE
:1054700001EB0010AAEB8000322101EB0010642147
:10548000B0FBF1F000F0F00A04206168A0FB0170AD
:1054900003461920A9FB00513A462846FBF71CF8A1
:1054A0006421B0FBF1F00AEB001A04206168A0FB54
:1054B00001510B461920A9FB00712A463846FBF71B
:1054C0000BF8834604206168A0FB015003461920B5
:1054D000A9FB007001462A463846FAF7FDFF642111
:1054E000B0FBF1F000EBC00101EB0010ABEB800072
:1054F000322101EB00106421B0FBF1F000F00F004D
:10550000504421688860BDE8F88F00000010014019
:105510000014014077B581B0044615460298A06298
:10552000A58500206064222084F842002C48E16BAD
:10553000C8632C48E16B08642B48E16BC864002009
:10554000E16B086502AE32682368191D2B46E06BDB
:10555000FDF7EAF938B110206064202084F8420099
:10556000012004B070BD00BF0020009020680068DA
:10557000009020684068009000BF00BF206970B1B3
:1055800000BF00BF21680C3151E8001F41F480705A
:1055900021680C3141E80002002AF3D100BF00BFAE
:1055A00000BF2168143151E8001F41F0010021685B
:1055B000143141E80002002AF3D100BF00BF00BF50
:1055C0002168143151E8001F41F040002168143176
:1055D00041E80002002AF3D100BF0020C1E700002B
:1055E000FB4F0008AF500008AB4F0008014691F890
:1055F0004100212828D18868B0F5805F0BD1086967
:1056000048B90A6A1088C0F308000B685860086A35
:10561000801C086205E00B6A581C086218780B6849
:105620005860C88C401E80B2C88458B90868C068E9
:1056300020F080000B68D8600868C06840F0400027
:105640000B68D860002070470220FCE708B50D48C1
:10565000FEF7AAF80B4800680068C0F3001078B1A4
:1056600000BF0020009007480068006800900548CF
:1056700000684068009000BF00BF024803F0F6FBDE
:1056800008BD0000FC03002000BFFEE710B5124C6F
:1056900003202061606111A0A0611349E1614FF412
:1056A000205121620021A1626162E1620BA02066AB
:1056B0000E4961661021A16600212167E1666167DC
:1056C0000BA1E01DFBF78EF90AA12046FBF78AF932
:1056D0002020A07110BD00004C5B00205465726D4D
:1056E000696E616C00000000F45B0020F483002010
:1056F00052545400534547474552000070B519B9FC
:10570000002500F8015B13E00C460346401C802A8C
:1057100000D9802203E011F8015B00F8015B151E3F
:10572000A2F1010202D00D78002DF4D10D1B1D70E5
:1057300070BD10B501460A69CB689A4204D88C68DE
:10574000641EE41AA01801E0D41A601E10BD000007
:1057500038B52849087E01226946FEF7F1FB044668
:10576000002C45D09DF8000005281ED008DC01283B
:105770000FD0022810D0032811D004282CD111E01A
:10578000062815D0072816D07F2824D0802823D1BA
:1057900014E0FFF75FF82AE0FFF7DAF827E0FEF7FA
:1057A000D5FD24E0FFF73EF821E0FEF7C1FC1EE046
:1057B000FEF786FF1BE0FEF771FF18E00D49087E3B
:1057C00001226946FEF7BCFB04461CB19DF80000AF
:1057D000FEF70AFF0BE00AE09DF80000802805DBD9
:1057E0000449087E01226946FEF7AAFB00BF00BFFC
:1057F00038BD0000A85400200146C81D70470000B5
:105800002DE9F04705460F461446724800780128F6
:1058100000D10FE06F48007800B9BCE06D48007817
:10582000022806D100F0DCF86A480078012800D090
:10583000B1E000BF202C06D26648C0690121A1401A
:10584000084000B1A7E0182C03D2681E054604707A
:1058500078E07E1B7F2E0BD9C6F3C711681E054664
:105860000170F0B240F08001681E0546017002E050
:10587000681E054606707F2C03D2681E054604701C
:1058800060E0B4F5804F0BD2C4F3C711681E054623
:105890000170E0B240F08001681E0546017051E0E1
:1058A000B4F5001F12D2C4F38731681E054601709B
:1058B000802040EAD410C1B2681E05460170E0B2F3
:1058C00040F08001681E054601703BE0B4F1805F46
:1058D00019D2C4F34751681E05460170802040EA82
:1058E0009430C1B2681E05460170802040EAD41091
:1058F000C1B2681E05460170E0B240F08001681E2A
:10590000054601701EE0210F681E054601708020CB
:1059100040EA5450C1B2681E05460170802040EA3A
:105920009430C1B2681E05460170802040EAD41050
:10593000C1B2681E05460170E0B240F08001681EE9
:10594000054601702448D0F804802248C068A8EBBE
:10595000000A3846514605E0CAB242F0800200F81B
:10596000012BC9097F29F7D800F8011B07467A1BCC
:10597000184948782946FEF795FB8146B9F1000F92
:1059800003D01448C0F80C8004E012480078401C92
:105990001049087000BF0F48007E00EB40010F481F
:1059A00000EBC100C1680B48007E00EB40020B48D1
:1059B00000EBC2000069081A0AD00648807838B99E
:1059C000012004498870FFF7C3FE00200149887058
:1059D000BDE8F087A8540020001000E0AC5B002078
:1059E000FEB501208DF800000DF1010630461C4A7D
:1059F000516905E0CAB242F0800200F8012BC909E2
:105A00007F29F7D800F8011B064616484468144859
:105A1000C068271A3046394605E0CAB242F0800213
:105A200000F8012BC9097F29F7D800F8011B0646A9
:105A30006946721A0A4948786946FEF733FB0546FB
:105A400035B10748C4600078401E0549087004E07D
:105A500003484069401C024948612846FEBD0000D9
:105A6000A8540020001000E02DE9F04704468946C4
:105A700017464FF0000AE56800BFD4F81080A8452B
:105A800003D9A8EB0500461E04E0A5EB0800401C66
:105A9000A1680E1AA068401BB04201D9304601E04F
:105AA000A068401B0646BE4201D2304600E03846A0
:105AB00006466168481932464946FBF72BF8B2445E
:105AC000B144BF1B3544A068A84200D10025E56061
:105AD000002FD2D15046BDE8F0872DE9F0470446AB
